:020000040C00EE
:100000000008001001020008B1020008D50900082C
:100010000F0B0008DB090008E109000800000000E0
:10002000000000000000000000000000B102000815
:10003000B102000800000000B1020008B10200088F
:10004000B1020008B1020008B1020008B1020008C4
:10005000B1020008B1020008B1020008B1020008B4
:10006000B1020008000000000000000000000000D5
:10007000B102000800000000B1020008B10200084F
:10008000B1020008B1020008B1020008B102000884
:10009000B1020008B1020008B1020008B102000874
:1000A000B1020008B1020008B1020008B102000864
:1000B000B1020008B1020008B1020008B102000854
:1000C000B1020008B1020008B1020008B102000844
:1000D000B1020008B1020008B1020008B102000834
:1000E000B1020008B1020008B1020008B102000824
:1000F000B1020008B1020008B1020008B102000814
:10010000B1020008B1020008B1020008B102000803
:10011000B1020008B1020008B1020008B1020008F3
:10012000B1020008B1020008B1020008B1020008E3
:10013000B1020008B1020008B1020008B1020008D3
:10014000B1020008B1020008B1020008B1020008C3
:10015000B1020008B1020008B1020008B1020008B3
:10016000000000000000000000000000000000008F
:10017000B1020008B1020008B1020008B102000893
:10018000B1020008B1020008B1020008B102000883
:10019000B1020008B1020008B1020008B102000873
:1001A000B1020008B1020008B1020008B102000863
:1001B000B1020008B1020008B1020008B102000853
:1001C000B1020008B1020008B1020008B102000843
:1001D000B1020008B1020008B102000800000000EE
:1001E000B1020008B1020008B1020008850700084A
:1001F000B102000800000000B10200080000000089
:10020000DFF88CD023488047234C244DAC4209DAD8
:1002100021686268A368043BA2BFC858D050FAE7BF
:100220000C34F3E71E4B1F4CA34208DA19685A68D6
:100230000020043AA4BF8850FBE70833F4E71A48CB
:1002400080471A48804700000084000C000000200E
:1002500078080000788C000C0000003000000000DE
:100260000084000C00080010000000000084000C56
:100270000008001000000000780800203807000087
:1002800000000030000E0000000800100000000018
:1002900000080010656D0008480200087802000898
:1002A0007802000890020008DD710008E5040008EB
:1002B000FEE780B483B000AF78600B46FB707B68CC
:1002C000DA68FB78012101FA03F31A437B68DA60EC
:1002D00000BF0C37BD465DF8047B704780B483B027
:1002E00000AF78607B680122DA6000BF0C37BD4642
:1002F0005DF8047B704780B483B000AF78600B4634
:100300007B807A887B685A6300BF0C37BD465DF8F6
:10031000047B704780B483B000AF78600B467B806D
:100320007A887B68DA6300BF0C37BD465DF8047BD2
:10033000704780B483B000AF786039607B683A68FA
:100340001A6100BF0C37BD465DF8047B704780B56D
:1003500086B000AFF860B9607A603B60FB681868EF
:10036000BB681A683B681344194607F0C9FB7861FB
:100370007B69002B12D0FB687A691A60FB681A68E7
:10038000BB681B6813443A687968184607F060FA3E
:10039000BB681A683B681A44BB681A607B691846D8
:1003A0001837BD4680BD80B586B000AFF860B96033
:1003B0007A600023BB82F86803F0C8F903461A4646
:1003C0007B681A607B681B68002B01D1012332E037
:1003D0007B681B680121184606F0C2FE03461A46D8
:1003E000BB681A60BB681B68002B01D1022322E0A6
:1003F0000023FB8219E0F86803F022FA0346BB826F
:10040000B7F91430002B07DBBB681A68FB8A13446A
:10041000BA8AD2B21A7005E0FB8A01331A467B68A9
:100420001A6007E0FB8A0133FB82FA8A7B681B684B
:100430009A42E0D3002318461837BD4680BD90B5D8
:100440008FB000AFF860B9607A6007F1100328221E
:100450000021184607F0FAFA002432E0BB68234472
:100460001B78602B0FD9BB6823441B787A2B0AD8E2
:10047000BB6823441B78203BDAB207F138032344DE
:1004800003F8282C1CE0BB6823441B78402B0FD9B1
:10049000BB6823441B785A2B0AD8BB6823441B78BB
:1004A0002033DAB207F13803234403F8282C07E09D
:1004B000BB6823441A7807F13803234403F8282C37
:1004C00001347B689C42C9D37B689AB207F1100360
:1004D0001946F86803F060F8034618463C37BD46F5
:1004E00090BD000090B58BB000AF2A4B07F110040F
:1004F0000FCB07C423700023FB600023BB6000F018
:100500004BF9254803F022F90346002B18D00023AD
:100510007B6000233B603A463B1D19461E48FFF7AF
:1005200042FF0346002B07D17A683B6807F10801B8
:1005300007F10C00FFF70BFF7B68184606F07EFE04
:10054000BB68002B21D0FB68BA680A21184607F067
:100550002FF978627B6A002B17D07B6AFA689B1AA6
:1005600001333B62FB683A6A19460B48FFF767FFA5
:10057000F8687B6A591CBA683B6AD31A1A4607F0B6
:1005800001FABA683B6AD31ABB60034802F084FFE1
:10059000B7E700BFA08200080800002080B500AFC8
:1005A00000211F4805F027FF1E491F4805F079FF6D
:1005B0001C491E4805F075FF4FF400411A48FFF72B
:1005C000A9FE4FF400411948FFF7A4FE4FF6FF7152
:1005D0001548FFF790FE4FF47A411448FFF78BFE61
:1005E0004FF488510E48FFF7A4FE114A002111482C
:1005F00005F080FD0E4A01210E4805F07BFD022129
:100600000748FFF756FE03210548FFF752FE06484C
:10061000FFF764FE0548FFF761FE00BF80BD00BF25
:1006200000C000400000002000C3004000C40040A3
:10063000948200080081024880B400AF044BDB685C
:100640001B0A03F007031846BD465DF8047B70479C
:1006500000ED00E080B483B000AF0346FB7197F972
:100660000730002B0BDB094997F907305B09FA7952
:1006700002F01F02012000FA02F241F8232000BF1D
:100680000C37BD465DF8047B704700BF00E100E019
:1006900080B483B000AF0346FB7197F90730002B9D
:1006A0000CDB094997F907305B09FA7902F01F0260
:1006B000012000FA02F2603341F8232000BF0C371A
:1006C000BD465DF8047B704700E100E080B483B074
:1006D00000AF03463960FB7197F90730002B0ADB46
:1006E0000D4997F907303A68D2B29200D2B20B4462
:1006F00083F800230AE00949FB7903F00F03043B68
:100700003A68D2B29200D2B20B441A7600BF0C37CC
:10071000BD465DF8047B704700E100E000ED00E0BD
:1007200080B489B000AFF860B9607A60FB6803F00C
:100730000703FB61FB69C3F10703062B28BF0623F0
:10074000BB61FB690633062B02D9FB69013B00E064
:1007500000237B610122BB6902FA03F35A1EBB68C6
:100760001A407B699A4001217B6901FA03F3591E03
:100770007B680B40134318462437BD465DF8047B65
:100780007047000080B500AF024801F08BFD00BF4C
:1007900080BD00BF2800002080B500AF114800F0E8
:1007A0007FFEFFF749FF034600223F211846FFF76F
:1007B000B7FF034619466B20FFF788FF6B20FFF752
:1007C00067FF6B20FFF746FF074B4FF416529A6105
:1007D000054B08229A77054B1B68DB68984700BFDA
:1007E00080BD00BF2800002008000020B00B0020C2
:1007F00080B400AF00BFBD465DF8047B704780B495
:1008000000AF00BFBD465DF8047B704780B500AF08
:10081000094B93F83E3103F00103DBB2002B08D003
:10082000FFF7BAFF044A92F83E316FF3000382F8F3
:100830003E3100BF80BD00BFB00B002080B500AFCF
:1008400040220D49812000F0A1FE40220B49822068
:1008500000F09CFE40220A49032000F097FE094860
:1008600002F0D6FD084A92F83E3143F0010382F8C7
:100870003E3100BF80BD00BF30090020700900205C
:10088000F008002008000020B00B002080B500AF69
:10089000024802F0BDFC00BF80BD00BF0800002080
:1008A00080B400AF00BFBD465DF8047B704780B4E4
:1008B00000AF00BFBD465DF8047B704780B400AF59
:1008C00000BFBD465DF8047B7047000080B485B072
:1008D00000AF03463A60FB800B467B71FB881B0A26
:1008E0009BB27B72FB883B720023FB6000237B8101
:1008F0007B7A022B08D0032B0BD0012B21D1164B76
:10090000FB6012237B811CE0144BFB603E237B8148
:1009100017E03B7A012B09D0022B0CD0002B00D022
:100920000EE00F4BFB6004237B8109E00D4BFB6065
:1009300058237B8104E00C4BFB6020237B8100BFAC
:1009400000BF3B68FA681A607B8918461437BD46B9
:100950005DF8047B704700BFB0820008C4820008C5
:10096000048300080C8300086883000880B584B005
:1009700000AF154803F028FE04F0ECFA40210220F5
:1009800004F00CFB042004F023FA002004F028F902
:10099000012004F077FA06F033FB0C4A0B4B1B687E
:1009A00043F4400313600A4A3B1D07CA83E807006B
:1009B0003B1D93E8070000F04BF8012000F013F80E
:1009C00000BF1037BD4680BD8C83000818820248E6
:1009D000A083000880B400AFFEE780B400AFFEE75C
:1009E00080B400AFFEE780B483B000AF7860BFF39F
:1009F0004F8FBFF36F8F4FF0E0214FF0E023D3F81C
:100A0000942D7B68002B01D0052300E001231343C4
:100A1000C1F8943DBFF34F8FBFF36F8F00BF0C370A
:100A2000BD465DF8047B704780B400AFBFF34F8FC5
:100A3000BFF36F8F4FF0E0230022C3F8942DBFF374
:100A40004F8FBFF36F8F00BFBD465DF8047B7047CB
:100A500080B487B000AF3B1D83E807003B7B092BC8
:100A600038BF0923FB757B68B3F1805F0DD37B68CA
:100A7000B3F1804F07D37B68B3F1C04F01D2052398
:100A800004E0072302E0062300E00223BB754FF0D9
:100A9000E0227B7B03F00703C2F8983D4FF0E02291
:100AA0004FF0E023D3F8A03D23F00103C2F8A03DAE
:100AB0004FF0E0217B681A46FB7DDA40FB7D02FAAD
:100AC00003F3C1F89C3D4FF0E021BB681B0603F027
:100AD000B853BA7D12041A433B7B002B05D03B7BF5
:100AE000013B5B0003F03E0303E03B7B5B0003F054
:100AF0003E031A43BB68DB1103F001031343C1F843
:100B0000A03D00BF1C37BD465DF8047B704780B434
:100B100085B000AF4FF0E023D3F8283DFB7397F981
:100B20000F30002B04DA4FF0E023D3F8343D00E01F
:100B30000023BB6000237B60FEE784B000BD0000A3
:100B400080B500AF084B1B685B6A01218020984785
:100B5000054B012283F83B21034B1B689B6A18213C
:100B60000020984700BF80BDB00B002080B586B044
:100B700000AF00237B6100237B81AB4B5B889BB282
:100B8000FB74FFF783FEA94B93F83E31C3F3400398
:100B9000DBB2002B00F0FD81A34B5B780C2B00F245
:100BA000EA8101A252F823F01F0D0008DD0B0008B6
:100BB000770F0008AB0E0008770F0008030E00083F
:100BC000830C0008710E0008730C0008390E000831
:100BD000E70C0008770E0008710F0008924B1B7895
:100BE00003F00303022B33D18F4B9B889BB203F09E
:100BF0000F033B828E4B1B78DBB2042B04D08A4B55
:100C00009B889BB2002B20D13B8A884A2C2101FB78
:100C100003F313441B7AC3F30003DBB2012B14D19B
:100C20003B8A824A2C2101FB03F31A44137A6FF3A7
:100C3000820313727D4B1B685B6A7B4A928892B277
:100C4000D2B20021104698479BE1FFF779FF98E167
:100C5000754B1B7803F00303002B07D1734A92F8FE
:100C60003E316FF3820382F83E318AE1FFF768FF7D
:100C700087E16E4B1B681B6B01226E490020984771
:100C80007FE1694B5B8898B2674B9B889BB2DBB274
:100C90003A1D1946FFF71AFE03467B617B69002B5C
:100CA00002D1FFF74DFF6CE15F4BDB889BB21A4628
:100CB0007B69934228BF13467B615C4B1B681B6BAF
:100CC00079687A69002098470346FB607A69FB6877
:100CD000D31A564A93627B681A46FB6813441A4635
:100CE000524BDA624DE1524B1B78DBB2042B0DD133
:100CF0004E4B1B681B6B4C4A928892B202F59C7259
:100D00004A4911440122002098473AE1484B1B7898
:100D1000DBB2032B40F03281FFF712FF31E1424B8F
:100D20001B7803F00303002B1BD1404B93F83E319B
:100D3000C3F38003DBB25B001AB23C4B93F83E3145
:100D4000C3F3C003DBB21BB213431BB29BB27B8164
:100D5000364B1B681B6B07F10A01022200209847E3
:100D60000FE1314B1B7803F00303012B0FD1304B04
:100D70001B78DBB2042B0AD100237B812B4B1B6831
:100D80001B6B07F10A01022200209847F9E0264B6D
:100D90001B7803F00303022B30D1234B9B889BB2BB
:100DA00003F00F033B82224B1B78DBB2042B04D0F1
:100DB0001D4B9B889BB2002B20D13B8A1B4A2C21C8
:100DC00001FB03F313441B7AC3F30003DBB2012BD3
:100DD00014D13B8A154A2C2101FB03F313441B7ADF
:100DE000C3F38003DBB29BB27B81104B1B681B6B90
:100DF00007F10A01022200209847C2E0FFF7A0FE97
:100E0000BFE0FB7C002B03D1094B02221A7002E0E9
:100E1000074B03221A70054B1B689B69FA7C002163
:100E200010469847ADE000BF000F0020B00B002037
:100E3000FD0E0020E90C0020584AFB7C82F8393175
:100E4000FFF7FCFCFB7C002B03D1554B03221A70EF
:100E500097E0524B93F83E3103F00103DBB2002BD5
:100E600003D04F4B04221A708BE0FFF769FE88E035
:100E7000FFF766FE85E04A4B1B78DBB2042B0CD1F2
:100E8000484B9B889BB21946464B5B889BB2DAB2B3
:100E9000424B0B4483F8382173E0414B1B78DBB2A3
:100EA000032B6DD1FFF74CFE6BE0FB7C022B02D1D4
:100EB000FFF746FE65E03A4B1B78DBB2042B38D1D6
:100EC000FB7C002B0AD0012B00D05AE0334A92F869
:100ED0003E3143F0040382F83E3129E0314B9B88D8
:100EE0009BB203F00F033B823B8A2C4A2C2101FB6F
:100EF00003F313441B7AC3F30003DBB2002B02D1CC
:100F0000FFF71EFE13E03B8A244A2C2101FB03F36A
:100F10001A44137A43F004031372204B1B685B6A74
:100F2000204A928892B2D2B201211046984700BF5F
:100F300027E01B4B1B78DBB2032B16D1FB7C002B6D
:100F400013D1184B1B7803F00303022B0DD1154B63
:100F50009B889BB2DBB2002B07D1104A137A43F077
:100F600004031372FFF7ECFD0BE0FFF7E9FD08E067
:100F7000FFF7E6FD05E0FFF7E3FD02E000BF00E05C
:100F800000BF064A92F83E316FF3410382F83E31CA
:100F900000E000BF1837BD4680BD00BFB00B002089
:100FA000FD0E0020000F002080B500AF104B93F81D
:100FB0003B31022B09D10E4B1B689B6A002100209C
:100FC00098470B4B052283F83B21094B93F83B31A3
:100FD000032B0BD1064B1B689B6A054A127918211B
:100FE00010469847024B012283F83B2100BF80BD89
:100FF000B00B002080B500AF124B93F83B31042BAF
:101000000CD1FFF7B3FD0F4B1B681B6B00220021B7
:10101000002098470B4B032283F83B21094B93F8A0
:101020003B31052B0BD1074B1B689B6A054A127994
:10103000182110469847034B012283F83B2100BF3B
:1010400080BD00BFB00B002080B582B000AF214B47
:101050001B68DB6A082220490020984778601D4AF7
:1010600092F83E3143F0020382F83E317B68082B50
:101070002CD1194BDB889BB2002B0DD1154B0322D1
:1010800083F83B21FFF772FD124B1B681B6B00229C
:101090000021002098471AE00F4B1B785BB2002B11
:1010A00006DA0C4B022283F83B21FFF75FFD0EE0CE
:1010B000084B042283F83B21064B1B689B6A064AB7
:1010C000D28892B211460020984700E000BF08374E
:1010D000BD4680BDB00B0020000F002080B584B05D
:1010E00000AF0346FB71FB79092B00F2FD8001A2E2
:1010F00052F823F04B12000839120008271200089A
:101100002D1200081D110008E9120008D112000874
:10111000C1120008E912000821120008744B0222D3
:101120001A70744B012283F83B21724A92F83E31C7
:101130006FF3820382F83E310023FB6050E06D4A7A
:10114000FB682C2101FB03F31A4413896FF304138A
:101150001381684AFB682C2101FB03F31A441389AD
:101160006FF3C3031381634AFB682C2101FB03F374
:101170001A44137A6FF382031372FB68002B2CD08E
:101180005C4AFB682C2101FB03F313441B7AC3F375
:101190000003DBB2002B20D0564B1B681B6A55495D
:1011A000FA682C2000FB02F20A440432127810463E
:1011B0009847504AFB682C2101FB03F31A44137A29
:1011C0006FF3000313724B4AFB682C2101FB03F3FE
:1011D0001A44137A6FF341031372FB680133FB6007
:1011E000FB68062BABDD434B002283F8392100233B
:1011F000FB6009E03F4AFB68134403F59C7300223F
:101200001A70FB680133FB60FB68002BF2DD394B81
:101210001B689B6A374A127918211046984764E088
:10122000FFF73EFB61E0FFF7E3FA5EE0304B01229F
:101230001A70FFF7E4FA58E02D4B00221A702D4B7C
:101240001B681B6A002098474FE0294B01221A7047
:101250004FF4A0720021274806F0F8FB254B264AE0
:101260001A60244B012283F83B21224B234A1A6245
:10127000204B4FF480725A621E4B214A5A611D4B1B
:101280004FF480729A611B4A13796FF3C71313717D
:10129000184A137A43F001031372164A137A43F083
:1012A00002031372134A1389402161F38C131381D3
:1012B000104B1B68DB69402200210020984714E096
:1012C0000C4B93F83A210A4B1A70FFF7F0FA0CE036
:1012D000074B1B78DAB2074B83F83A21044B0522FF
:1012E0001A70FFF7EBFA00E000BF1037BD4680BD73
:1012F000FD0E0020B00B0020AC830008B0090020D8
:10130000B00A002080B586B000AF03460A46FB71E4
:101310001346BB71FB7903F00F032C2202FB03F38E
:101320005D4A134404337B615B4B93F83C31FB749F
:10133000594B93F83D31BB74FB7903F00F03DAB2DC
:10134000554B83F83C21FB7923F07F03DAB2524BF3
:1013500083F83D21BB79012B13D0022B3AD0002B0F
:1013600040F08E807A6993886FF3C30393804A4B71
:1013700093F83C31002B00D002E0FFF765FE00BF80
:101380007EE07A69938843F0200393807B699B68B1
:10139000002B10D17B690022DA603F4B1B68DB6AAF
:1013A0007A6910787A6911697A69526998470346AF
:1013B0001A467B699A607A6993886FF3C3039380B6
:1013C000354B93F83C31002B00D002E0FFF712FEC2
:1013D00000BF55E07B695B6A002B17D02E4B1B6862
:1013E0001B6B7A6910787A69916A7A69526A9847B0
:1013F000F8607B695A6AFB68D21A7B695A627B691A
:101400009A6AFB681A447B699A6241E07B691B789F
:1014100003F00F03DBB2002B20D17B699B69002B0B
:101420001CD07B699B691D4AD28892B2934215D029
:101430007B699B697A699288C2F38612D2B2B3FB48
:10144000F2F102FB01F29B1A002B07D1124B1B6831
:101450001B6B7A6910780022002198477B69002273
:101460009A617A6993886FF3041393800A4B93F817
:101470003C31002B00D002E0FFF796FD00BF00BF1B
:10148000054AFB7C82F83C31034ABB7C82F83D3143
:101490001837BD4680BD00BFB00B0020000F0020F4
:1014A00080B584B000AF78600023FB604FF4A07279
:1014B0000021294806F0CAFA284B00221A70264B50
:1014C000274A1A60244B012283F83B21224B254AEC
:1014D0001A62214B4FF480725A621F4B224A5A61A2
:1014E0001D4B4FF480729A611B4A13796FF3C71337
:1014F0001371194A137A43F001031372164A137ACF
:1015000043F002031372144A1389402161F38C13D0
:101510001381114B1B685B68786898470346FB6032
:10152000FB68002B02D04FF0FF3311E00A4B1B6821
:10153000DB694022002100209847FB68002B06D081
:10154000054B1B689B6898474FF0FF3300E0002372
:1015500018461037BD4680BDB00B0020FD0E0020A0
:10156000AC830008B0090020B00A002080B500AFAD
:10157000054B1B68DB6B98470346002B01D001230A
:1015800000E00023184680BDB00B002080B485B079
:1015900000AF03463960FB711346BB80FB7903F053
:1015A0000F03FB7397F90730002B12DAFB7B154A08
:1015B0002C2101FB03F3134420333A681A60FB7BB0
:1015C000BA8810492C2000FB03F30B4424331A6023
:1015D00011E0FB7B0B4A2C2101FB03F31344143372
:1015E0003A681A60FB7BBA8806492C2000FB03F39B
:1015F0000B4418331A6000BF1437BD465DF8047BF6
:10160000704700BFB00B002080B485B000AF786099
:101610000023BB730023FB731CE0FB7B134A3421C4
:1016200001FB03F313445B68C3F3C003DBB2002B7D
:101630000BD1FB7B0D4A342101FB03F313445B68A0
:10164000C3F30013DBB2002B01D00123BB73FB7B80
:101650000133FB737B681B7BFA7B9A42DDD3BB7B38
:1016600018461437BD465DF8047B7047F40C002023
:1016700080B48BB000AF786039607B68342202FBA5
:1016800003F3344A13443B62324BD3F8E031FB613D
:10169000304A7B6870339B0013445B681B68FB60B7
:1016A0003B689B08BB61BB699B007B617B7B23F034
:1016B0007F03DBB2002B47D03B6A5B6A002B43D031
:1016C00000237B620AE03B6A5A6A7B6A9B001344F0
:1016D000FA6912681A607B6A01337B627A6ABB69B5
:1016E0009A42F0D33A687B699A4221D0FB691B6821
:1016F0003B6100237B6215E03B6A5A6ABB69990033
:101700007B6A0B4413447A6AD200FF2191403A6904
:1017100011407A6AD20021FA02F2D2B21A707B6AC0
:1017200001337B627A697B6A1A443B689A42E3D34D
:101730003B6ADA6A3B681A443B6ADA623B6A5A6A75
:101740003B681A443B6A5A6200BF2C37BD465DF8BD
:10175000047B7047F40C002080B489B000AF78603F
:101760007B681B78C3F30303DBB2234A783352F858
:101770002330FB607B681B78C3F30303DBB21E4A94
:101780006A3352F823309B69BB607B689A6A7B6836
:10179000DB6AD31AFB61FB69002B02D100237B615A
:1017A00023E0FB6903339B08BB613B891A46BB6995
:1017B0009A4204D23B89BB61BB699B00FB61002359
:1017C0003B610CE07B685B6A1A68FB681A603B69E6
:1017D00001333B617B685B6A1A1D7B685A623A6918
:1017E000BB699A42EED3FB697B617B69184624375B
:1017F000BD465DF8047B7047F40C002080B485B0D2
:1018000000AF0346FB710023BB60BB6843F02003BD
:10181000BB60FB7903F01F03DAB2BB6862F38A1383
:10182000BB60144BD3F8A031BA681A610023FB6087
:1018300002E0FB680133FB60FB68B3F57A7FF8D305
:101840000C4BD3F8A0311B69BB60BB68C3F34013DA
:10185000DBB2002BF4D10023FB6000BFFB685A1CF5
:10186000FA60B3F57A7FF9D300BF1437BD465DF84F
:10187000047B7047F40C002080B483B000AF0023D9
:101880003B603B6843F010033B60144BD3F8A0313E
:101890003A681A6100237B6002E07B6801337B6059
:1018A0007B68B3F57A7FF8D30C4BD3F8A0311B6972
:1018B0003B603B68C3F30013DBB2002BEAD100238B
:1018C0007B6000BF7B685A1C7A60B3F57A7FF9D3DE
:1018D00000BF0C37BD465DF8047B7047F40C002058
:1018E00080B483B000AF0123FB8000237B71002311
:1018F0003B7105E0FB885B00FB807B7901337B71EA
:101900007B79062B07D8114BB3F8FC21FB881340D9
:101910009BB2002BEED10D4BB3F8FC21FB8813409A
:101920009BB2002B0AD1094BB3F8FC21FB8813436F
:101930009AB2064BA3F8FC217B793B713B791846A0
:101940000C37BD465DF8047B704700BFF40C0020E7
:1019500080B483B000AF0346FB710A4BB3F8FC219F
:10196000FB79012101FA03F39BB2DB439BB21340E5
:101970009AB2044BA3F8FC2100BF0C37BD465DF8BA
:10198000047B7047F40C002080B487B000AF78600F
:1019900000233B617B681A6B7B689B6AD31A7A6869
:1019A0009268C2F31202934209D97B689B6A7A68F3
:1019B0009268C2F312021A447B689A6203E07B6861
:1019C0001A6B7B689A627B681B7803F00F03DBB2AB
:1019D000002B19D107F110037B617A6993780121FB
:1019E00061F3C40393707A69D37843F06003D370D2
:1019F0007B681B6BDBB203F07F03D9B27A69137883
:101A000061F30603137033E07B689B6A002B09D1F6
:101A10003B696FF312033B617B8A012262F3CC03C3
:101A20007B8225E07B689A6A7B68DB6AD31A7A68D6
:101A30005268C2F3C622D2B21344013B7A6852689C
:101A4000C2F3C622D2B2B3FBF2F39BB2C3F30903D3
:101A50009AB27B8A62F3CC037B827B689A6A7B684A
:101A6000DB6AD31AC3F312023B6962F312033B61D0
:101A7000214B1B685B7B002B0CD17B681B78C3F36D
:101A80000303DBB21D4A70339B0013445B687A6822
:101A9000526A5A617B681B78C3F30303DBB2174AAF
:101AA00070339B0013445B683A691A617B681B784A
:101AB000C3F30303DBB2114A70339B0013445B682A
:101AC0001B68FB60FB7B43F00403FB73FB7B43F071
:101AD0008003FB737B681B78C3F30303DBB2074A05
:101AE00070339B0013445B68FA681A6000BF1C37B0
:101AF000BD465DF8047B7047F00C0020F40C00201C
:101B000080B485B000AF78600023FB607B681B78F1
:101B1000C3F30303DBB25E4A6A3352F823301B6817
:101B2000BB607B681A6B7B689B6AD31A7A68926881
:101B3000C2F31202934204D27B681A6B7B689A62EA
:101B400008E07B689B6A7A689268C2F312021A44C2
:101B50007B689A627B689B6A002B09D1FB686FF3F4
:101B60001203FB60FB89012262F3CC03FB816AE074
:101B70007B681B7803F00F03DBB2002B10D1FB89CD
:101B8000012262F3CC03FB817B689A6A7B68DB6A83
:101B9000D31AC3F31202FB6862F31203FB602BE05B
:101BA0007B689A6A7B68DB6AD31AC3F31202FB680C
:101BB00062F31203FB607B689B6A9AB27B68DB6A04
:101BC0009BB2D31A9BB21A467B685B68C3F3C623E9
:101BD000DBB29BB2013B9BB213447A685268C2F3FA
:101BE000C622D2B293FBF2F39BB2C3F309039AB2BB
:101BF000FB8962F3CC03FB81264B1B685B7B002BCC
:101C00000BD17B681B78C3F30303DBB2204A6A3332
:101C100052F823307A68526A5A611E4B1B685B7B0C
:101C2000012B10D11A4BD3F8A431194AD2F8A421B0
:101C3000516B7A681278C2F30302D2B210460122C5
:101C400082400A435A637B681B78C3F30303DBB209
:101C50000F4A6A3352F82330FA681A61FB7A43F06C
:101C60008003FB72FB7A43F00403FB727B681B78F2
:101C7000C3F30303DBB2064A6A3352F82330BA686F
:101C80001A6000BF1437BD465DF8047B704700BF83
:101C9000F40C0020F00C002080B588B000AF786014
:101CA000504BD3F8A4315B687B613B7D43F001036B
:101CB0003B754C4BD3F8A4317A695A600023FB6121
:101CC0001AE0484AFB6970339B0013445B681B6849
:101CD000BB61FB7E43F00803FB76BB7E6FF34513CD
:101CE000BB76404AFB6970339B0013445B68BA695A
:101CF0001A60FB690133FB61FB69062BE1D9394BA3
:101D0000D3F8A03140225A6200233B6110237B822A
:101D100040233B82334BD3F8A0313A699A620123C6
:101D2000FB6111E02F4BD3F8A011FB69013BFA696D
:101D300004329201920842F4801240339B000B441B
:101D40005A60FB690133FB61FB69062BEAD910205D
:101D5000FFF754FD0020FFF751FDFFF78DFD002335
:101D6000FB603B7B43F001033B73BB7B43F0010310
:101D7000BB731C4BD3F8A431FA68DA610F2000F072
:101D8000FDFB0F2000F012FC164BD3F8A4311B68AA
:101D9000BB603B896FF30A133B81124BD3F8A4312C
:101DA000BA681A607B685B7B012B04D10D4BD3F8BA
:101DB000A43100225A630B4A53686FF30413536033
:101DC000084A53686FF3C3035360064BD3F80032DD
:101DD00004209847042000F025FB00BF2037BD46B3
:101DE00080BD00BFF40C002080B582B000AF0F4B67
:101DF000D3F8A0315B687B603B7903F00403DBB26E
:101E0000002B0BD0094A92F8FE316FF3820382F85F
:101E1000FE31064BD3F80032012098477B68184604
:101E200000F066FB00BF0837BD4680BDF40C002003
:101E300080B582B000AF1B4BD3F8A8311B687B6024
:101E4000BB886FF30A03BB80164BD3F8A8317A68BE
:101E50001A60144A92F8FE3143F0010382F8FE3111
:101E6000104A92F8FE3143F0040382F8FE310D4B24
:101E7000D3F80032022098470A4BD3F8A031DB6830
:101E80003B607B78092262F385037B70054BD3F8B6
:101E9000A0313A68DA600B2000F0C4FA00BF0837BE
:101EA000BD4680BDF40C002080B58CB000AF7860DA
:101EB0006B4BD3F8A4319B69FB61694BD3F8A43118
:101EC000DB69BB61664BD3F8A4315B697B61FA8B3C
:101ED0007B8B1340BB85002387F82F300023FB60EA
:101EE000AEE0BA8D97F82F3042FA03F37B857B8DF5
:101EF00003F001033B853B8D002B00F09C8097F89D
:101F00002F30342202FB03F3554A13447B6297F8C7
:101F10002F30534A70339B0013445B689A687B6987
:101F200013403B617B685B7B002B08D197F82F3017
:101F30004B4A70339B0013445B681B69FB603B7C1E
:101F400003F00803DBB2002B33D07A6A13796FF306
:101F5000451313717B685B7B002B0ED107F10C03DB
:101F6000DB78C3F34113DBB21A4613465B079B1AB7
:101F7000DB0003F118027B6A1A617B685B7B012B33
:101F800006D17B6A1A697B6ADB6A1A447B6A1A612A
:101F90007A6A53686FF304135360314BD3F80432F9
:101FA00000210020984797F82F301946082000F0AC
:101FB000CDFA3B7C03F00103DBB2002B34D07B680D
:101FC0005B7B002B15D17B6A9A6A7B6ADB6AD31A2A
:101FD000FA68C2F312029B1A3B627B6ADA6A3B6AB6
:101FE0001A447B6ADA627B6A5A6A3B6A1A447B6AE1
:101FF0005A627B6A1A6B7B6A9B6A9A4211D17B6A2E
:10200000DA6A7B6A1A617A6A53686FF30413536061
:10201000134BD3F8043297F82F200121104698472C
:1020200002E0786AFFF7B0FC3B6997F82F20114671
:10203000184600F08BFA97F82F30013387F82F30CD
:10204000BA8D97F82F3042FA03F3002B7FF449AF93
:102050000D2000F0E7F900BF3037BD4680BD00BF5E
:10206000F40C002080B58CB000AF78606B4BD3F8D7
:10207000A4319B697B61694BD3F8A4311B693B6137
:102080000023BB60BB8ABB85002387F82F30B6E0F6
:10209000BA8D97F82F3042FA03F37B857B8D03F0DE
:1020A00001033B853B8D002B00F0A48097F82F3077
:1020B000342202FB03F3594A13447B6297F82F3012
:1020C000564A6A3352F823309B683B62534BD3F82D
:1020D000A4315B6B7A6A1278C2F30302D2B2D340A6
:1020E000DB0103F080023B691A433B6A1340FB604B
:1020F0007B685B7B002B07D197F82F30474A6A3308
:1021000052F823301B69BB607B685B7B012B15D1C8
:102110003B7B23F07F03DBB2002B0FD0786AFFF705
:102120001BFBF8617B6ADA6AFB691A447B6ADA6234
:102130007B6A5A6AFB691A447B6A5A623B7B03F0EA
:102140000103DBB2002B4ED07B685B7B002B1DD1E3
:102150007A8941F6F87313409BB2002B16D1BB6805
:10216000C3F31203002B11D17B6A9A6A7B6ADB6A84
:10217000D31ABB617B6ADA6ABB691A447B6ADA628A
:102180007B6A5A6ABB691A447B6A5A627B6A1A6B19
:102190007B6A9B6A9A4223D17A6A53686FF3C303BE
:1021A00053607B685B7B012B0ED11C4BD3F8A431B1
:1021B0001A4AD2F8A421516B97F82F20012000FA77
:1021C00002F2D2430A405A63144BD3F8043297F810
:1021D0002F2062F07F02D2B202211046984702E01F
:1021E000786AFFF78DFCFB6897F82F201146184698
:1021F00000F094F997F82F30013387F82F30BA8D1B
:1022000097F82F3042FA03F3002B7FF441AF0E20F2
:1022100000F008F900BF3037BD4680BDF40C002047
:1022200080B582B000AF1E4BD3F8A0311B6A7B6033
:10223000BB79C3F34303DBB2013B052B2AD801A2D0
:1022400052F823F0952200085D220008952200082C
:102250009522000895220008792200083B79C3F3F3
:102260000303DBB21A46BB88C3F30A139BB21946B9
:102270001046FFF7FDF90EE03B79C3F30303DBB231
:102280001A46BB88C3F30A139BB219461046FFF7E0
:10229000EFF900E000BF00BF0837BD4680BD00BFBA
:1022A000F40C002080B584B000AF7860504BD3F8B8
:1022B000A0319B69FB604E4BD3F8A0315A69FB6893
:1022C0001340BB603B7A03F00803DBB2002B07D05E
:1022D000474BD3F8003209209847092000F0A2F8B4
:1022E0007B685B7B012B19D13B7A03F01003DBB2D7
:1022F000002B13D03B7B6FF304133B733C4BD3F8A1
:10230000A031FA689A61FFF78BFF3B7B43F0100323
:102310003B73374BD3F8A031FA689A617B7A03F0AC
:102320000403DBB2002B02D00A2000F07BF87B7A9A
:1023300003F00803DBB2002B07D02D4BD3F800329B
:1023400006209847062000F06DF8FB7A23F07F0303
:10235000DBB2002B07D0264BD3F800320820984779
:10236000082000F05FF8FB7A03F04003DBB2002B9B
:102370000ED01F4A92F8FE3143F0040382F8FE317A
:102380001B4BD3F8003200209847002000F04AF899
:102390007B7A03F01003DBB2002B02D07868FFF7E2
:1023A0007BFC7B7A03F02003DBB2002B01D0FFF72C
:1023B0003FFDBB7A03F00403DBB2002B02D0786848
:1023C000FFF750FEBB7A03F00803DBB2002B02D00C
:1023D0007868FFF769FD3B7A03F00403DBB2002B5A
:1023E00001D0FFF701FD00BF1037BD4680BD00BF23
:1023F000F40C002080B500AF034802F059FA02F057
:102400003DFE00BF80BD00BF8000002080B500AF52
:10241000034802F02FFA02F03FFE00BF80BD00BF6C
:102420008000002080B485B000AF0346FB7100231C
:10243000FB60FB790D2B4CD801A252F823F000BFB2
:1024400079240008D3240008D3240008D3240008EA
:1024500083240008D32400088D2400089724000852
:10246000A1240008AB240008B5240008BF240008FC
:10247000D3240008C9240008FB7B43F04003FB730E
:1024800028E07B7B43F010037B7323E07B7B43F0EE
:1024900008037B731EE0FB7B43F08003FB7319E0B2
:1024A000FB7B43F08003FB7314E03B7B43F00803AA
:1024B0003B730FE07B7B43F004037B730AE07B7B81
:1024C00043F020037B7305E0BB7B43F00803BB7341
:1024D00000E000BF054BD3F8A031FA685A6100BF95
:1024E0001437BD465DF8047B704700BFF40C002034
:1024F00080B485B000AF78600023FB607B68FB6030
:10250000054BD3F8A031FA685A6000BF1437BD46B6
:102510005DF8047B704700BFF40C002080B485B0E8
:1025200000AF78600B46FB707B68FB60FB78064A67
:102530006A3352F82330FA689A6000BF1437BD46F8
:102540005DF8047B704700BFF40C002080B485B0B8
:1025500000AF78600B46FB707B68FB60FB78064A37
:1025600070339B0013445B68FA689A6000BF1437AD
:10257000BD465DF8047B7047F40C002080B485B044
:1025800000AF78607B68FB60074BD3F8A431064A44
:10259000D2F8A4215169FA680A435A6100BF14377E
:1025A000BD465DF8047B7047F40C002080B485B014
:1025B00000AF78607B68FB60074BD3F8A431064A14
:1025C000D2F8A4211169FA680A431A6100BF1437CE
:1025D000BD465DF8047B7047F40C002080B483B0E6
:1025E00000AF00237B603B7943F004033B713B79F0
:1025F00043F008033B713B7943F002033B713B79A5
:1026000043F001033B713B796FF345133B717B79D9
:1026100043F001037B713B7943F010033B713B793D
:1026200043F080033B713B7943F040033B717B688F
:102630006FF35F237B607B6818460C37BD465DF8FF
:10264000047B704780B58AB000AF7860FFF7D2FE98
:10265000874A7B68136000237B620CE0854A7B6AB3
:10266000402142F82310844A7B6A402142F823101B
:102670007B6A01337B627B6A062BEFD94FF40272CF
:1026800000217E4805F0E2F97B685B687B4AC2F86E
:1026900000327B689B68794AC2F804327B681B6809
:1026A0003B627B681B68754AC2F8A0313B6A03F540
:1026B0000063724AC2F8A43100237B620CE07B6A9B
:1026C00048335B013A6A1A446C497B6A6A3341F8C1
:1026D00023207B6A01337B627B6A062BEFD90023C0
:1026E0007B620DE07B6A58335B013A6A1A446349A6
:1026F0007B6A70339B000B445A607B6A01337B62B8
:102700007B6A062BEED900237B620CE07B6A0133E7
:102710001B033A6A1A4459497B6A783341F82320EB
:102720007B6A01337B627B6A062BEFD9534BD3F86C
:10273000A0319B68FB613B7F43F001033B773B7F0C
:1027400043F080033B777B685B7B002B04D13B7FAE
:1027500043F020033B7703E03B7F6FF345133B7768
:10276000464BD3F8A031FA699A60444BD3F8A031B4
:10277000DB68BB61FB7E43F04003FB767B7E43F06E
:1027800001037B763D4BD3F8A031BA69DA603B4B4D
:10279000D3F8A4311B687B613B7D43F003033B7599
:1027A000BB7D6FF3C713BB75344BD3F8A4317A6983
:1027B0001A60324BD3F8A4315B683B613B7C43F039
:1027C00002033B742D4BD3F8A4313A695A601020B0
:1027D000FFF714F8FFF750F8284BD3F8A031002288
:1027E0009A61264BD3F8A0314FF0FF325A61002393
:1027F000FB603B7B43F002033B733B7B43F00403F2
:102800003B73FB7B43F04003FB737B7B43F0100384
:102810007B737B7B43F020037B737B7B43F0040360
:102820007B737B7B43F008037B73FB7B43F080036C
:10283000FB733B7B43F008033B737B685B7B012BA3
:1028400003D13B7B43F010033B73BB7B43F0080396
:10285000BB73BB7B43F00403BB73084BD3F8A031BD
:10286000FA689A61002318462837BD4680BD00BF2C
:10287000F00C00207808002094080020F40C0020C0
:1028800080B582B000AF0C4BD3F8A4315B687B609D
:102890003B7943F002033B71074BD3F8A4317A68CC
:1028A0005A604FF402720021034805F0CFF800236C
:1028B00018460837BD4680BDF40C002080B483B0B4
:1028C00000AF0A4BD3F8A4315B687B603B796FF3B0
:1028D00041033B71054BD3F8A4317A685A60002359
:1028E00018460C37BD465DF8047B7047F40C002099
:1028F00080B483B000AF0A4BD3F8A4315B687B602F
:102900003B7943F002033B71054BD3F8A4317A685D
:102910005A60002318460C37BD465DF8047B7047AB
:10292000F40C002080B584B000AF78600023FB6019
:102930003B7B012262F3C4033B73124B93F8FE31DD
:10294000C3F30003DAB23B7B62F341033B73786865
:10295000FEF75AFE034603F00103DAB23B7B62F353
:1029600082033B73074B93F8FE31C3F38003DAB263
:102970003B7B62F300033B73FB6818461037BD4690
:1029800080BD00BFF40C002080B584B000AF0346CA
:102990003960FB71FB7903F00F03342202FB03F370
:1029A0001A4A1344BB60BB685B68C3F30013DBB215
:1029B000002B06D1BB681B7903F00403DBB2002BAC
:1029C00002D10123FB731CE0BB685A693B689A4241
:1029D00002D2BB685B693B60BB683A681A63BB683C
:1029E0000022DA62BB6800229A62BB68DA68BB68C0
:1029F0005A62BB6800221A61B868FEF7C5FF00235F
:102A0000FB73FB7B18461037BD4680BDF40C0020DD
:102A100080B586B000AF0346B9607A60FB73FB7B7C
:102A2000342202FB03F3174A13447B617B691A6962
:102A30007B689A4202D27B691B697B607B69DA689A
:102A40007B699B6913447A681946B86804F000FFF3
:102A50007B691A697B68D21A7B691A617B691B6979
:102A6000002B06D07B699A697B681A447B699A615E
:102A700002E07B6900229A617B6818461837BD46E0
:102A800080BD00BFF40C002080B586B000AF0346C7
:102A9000B9607A60FB73FB7B03F00F03342202FB07
:102AA00003F3214A13443B613B691B7903F00403A0
:102AB000DBB2002B02D101237B6130E03B695B6814
:102AC000C3F3C003DBB2012B02D100237B6126E0FC
:102AD0003B691A6A7B689A4202D23B691B6A7B6037
:102AE0003B69DB697A68B968184604F0B1FE3B6956
:102AF000DA693B695A623B697A681A633B6900226A
:102B00009A623B690022DA623A69536843F008032B
:102B100053603869FEF7F4FF3B691B6B7B617B698F
:102B200018461837BD4680BDF40C002080B485B02F
:102B300000AF03460A46FB711346BB710D4BD3F839
:102B4000A4311B68FB60BB79002B0CD1FB7903F02F
:102B50007F03DAB2BB8962F30A13BB81054BD3F85A
:102B6000A431FA681A60002318461437BD465DF890
:102B7000047B7047F40C002080B485B000AF03469E
:102B80000A46FB711346BB71FB7903F00F03342235
:102B900002FB03F34A4A1344FB60BB79002B40D08D
:102BA00097F90730002B1ADAFB681B78C3F303038D
:102BB000DBB2434A6A3352F823301B68BB60BB7AEE
:102BC00043F02003BB72FB681B78C3F30303DBB243
:102BD0003B4A6A3352F82330BA681A601BE0FB683C
:102BE0001B78C3F30303DBB2354A70339B001344F5
:102BF0005B681B68BB60BB7A43F02003BB72FB6859
:102C00001B78C3F30303DBB22D4A70339B001344DC
:102C10005B68BA681A60FA68137943F0200313718D
:102C200047E097F90730002B1EDAFB681B78C3F3E7
:102C30000303DBB2224A6A3352F823301B68BB60BD
:102C4000BB7A6FF34513BB72FB7A43F01003FB7240
:102C5000FB681B78C3F30303DBB2194A6A3352F8EB
:102C60002330BA681A601FE0FB681B78C3F30303C4
:102C7000DBB2134A70339B0013445B681B68BB6074
:102C8000BB7A6FF34513BB72FB7A43F01003FB7200
:102C9000FB681B78C3F30303DBB2094A70339B0064
:102CA00013445B68BA681A60FA6813796FF34513C6
:102CB0001371002318461437BD465DF8047B704736
:102CC000F40C002080B485B000AF0346FB71FB79A3
:102CD00003F00F03342202FB03F31B4A1344FB608F
:102CE000FB681B7823F07F03DBB2002B04D0FA686B
:102CF00053686FF3C3035360FB681B7823F07F03B3
:102D0000DBB2002B04D1FA6853686FF304135360ED
:102D1000FA6813796FF345131371FB6800221A6187
:102D2000FB6800229A61FB6800229A62FB6800221D
:102D3000DA62FB6800221A63002318461437BD4686
:102D40005DF8047B704700BFF40C002080B586B0AE
:102D500000AF0346FB710B46BB711346BB80974B1C
:102D6000D3F8A431DB693B61FB7903F00F03342214
:102D700002FB03F3914A13447B61342200217869FA
:102D800004F064FE7B69FA791A707A69137943F06A
:102D900004031371BB88DBB203F07F03D9B27A69F5
:102DA000536861F3D12353607B691B78002B07D0F4
:102DB0007A6993684FF6C07161F31203936005E07E
:102DC0007A699368402161F3120393607B691B78F1
:102DD000C3F30303DBB21B02794A1A447B69DA614D
:102DE0007B691B78C3F30303DBB21B02754A1A44E9
:102DF0007B69DA607B691B78C3F30303DBB21A4695
:102E0000714B53F822207B691A627B691B78C3F3EC
:102E10000303DBB21A466D4B53F822207B695A61DB
:102E20007B691B7823F07F03DBB2002B02D1BB79D7
:102E3000002B79D17B691B78C3F30303DBB25F4AB4
:102E40006A3352F823301B68FB607B7B43F08003BE
:102E50007B73BB7903F00303DAB2BB7B62F38303BA
:102E6000BB73BB79002B23D1BB88102B14D0102B44
:102E700002DC082B16D023E0202B07D0402B00D0FB
:102E80001EE0BB896FF30A03BB8119E0BB890122F5
:102E900062F30A03BB8113E0BB89022262F30A03D7
:102EA000BB810DE0BB89032262F30A03BB8107E00B
:102EB000BB88C3F30A039AB2BB8962F30A03BB81DE
:102EC000FB7B43F01003FB73BB7B6FF34513BB73BA
:102ED000FEF706FD034603F00F03D9B27A69938823
:102EE00061F3891393807B699B88C3F38313DAB200
:102EF000FB8962F38913FB817B691B78C3F30303AE
:102F0000DBB22E4A6A3352F82330FA681A603A8AE2
:102F10007B691B78C3F30303DBB2194601238B40A3
:102F20009BB213439BB23B827B691B7823F07F03E8
:102F3000DBB2002B02D0BB79002B72D17B691B78EE
:102F4000C3F30303DBB21D4A70339B0013445B6879
:102F50001B68BB607B7A43F080037B72BB7903F014
:102F60000303DAB2BB7A62F38303BB72BB79002B33
:102F70002ED1BB88102B14D0102B02DC082B16D0BE
:102F80002EE0202B07D0402B00D029E03B896FF3A7
:102F90000A033B8124E03B89012262F30A033B815F
:102FA0001EE03B89022262F30A033B8118E03B8961
:102FB000032262F30A033B8112E000BFF40C0020FD
:102FC000000700300000003094080020780800203E
:102FD000BB88C3F30A039AB23B8962F30A033B81BD
:102FE000FB7A43F01003FB72BB7A6FF34513BB729D
:102FF0007B691B78C3F30303DBB20F4A70339B007A
:1030000013445B68BA681A607A8A7B691B78C3F3D9
:103010000303DBB2194601238B409BB213439BB2DF
:103020007B82054BD3F8A4313A69DA610023184654
:103030001837BD4680BD00BFF40C002080B588B0B5
:1030400000AF0346FB71FB7903F00F03342202FB50
:1030500003F3544A1344BB6100233B61514BD3F843
:10306000A431DB69FB60BB691B78C3F30303DBB2EC
:103070001A46012393407B61BB691B7903F004036B
:10308000DBB2002B02D10123FB7785E07B7C6FF361
:10309000C7137B74FB7C43F04003FB74FB7C43F061
:1030A0000803FB74BB7C6FF34513BB74BA691379D7
:1030B0006FF382031371BA6913796FF345131371B8
:1030C000BA6953686FF304135360BA6953686FF3B6
:1030D000C3035360BB691B7823F07F03DBB2002B73
:1030E00006D1BB691B7903F00303DBB2002B12D1BD
:1030F000BB691B78C3F30303DBB22A4A6A3352F875
:1031000023303A691A60BA897B699BB2DB439BB270
:1031100013409BB2BB81BB691B7823F07F03DBB2FA
:10312000002B06D0BB691B7903F00303DBB2002B35
:1031300023D1BB691B78C3F30303DBB2194A703395
:103140009B0013445B683A691A60FA897B699BB2F9
:10315000DB439BB213409BB2FB81134B1B685B7B31
:10316000012B0AD10F4BD3F8A4310E4AD2F8A42177
:10317000516B7A69D2430A405A630A4BD3F8A4319F
:10318000FA68DA61BB699B88C3F38313DBB2184624
:10319000FEF7DEFB0023FB77FB7F18462037BD469A
:1031A00080BD00BFF40C0020F00C002080B483B080
:1031B00000AF084BD3F8A4319B683B603B68C3F376
:1031C0000D239BB2FB80FB8818460C37BD465DF88B
:1031D000047B7047F40C002080B400AF0B4B93F8D5
:1031E000FE3103F00103DBB2002B09D0074B93F84B
:1031F000FE3103F00403DBB2002B01D0012300E019
:1032000000231846BD465DF8047B7047F40C00208F
:1032100080B584B000AF78607A4B93F83E31C3F349
:103220004003DBB2002B14BF01230023DBB283F089
:103230000103DBB2002B40F0D480734B9B889AB221
:103240007B681B789BB29A4240F0CD806E4B5B78D6
:10325000203B032B00F2D28001A252F823F000BFE2
:10326000013300087132000891330008B9330008B7
:10327000654B1B78A12B40F0B880624A92F83E3132
:103280006FF3410382F83E3100BF5E4B93F83C314F
:103290001A462C2303FB02F35A4A13440433FB60FF
:1032A000FB685B68C3F30013DBB2002B08D1FB683B
:1032B0001B7903F00203DBB2002B01D0012300E0F5
:1032C000002303F00103DBB283F00103DBB2002B28
:1032D000DBD17B689B69184600F010FE7B681B7F82
:1032E000184600F09FFD7B685B7F184600F09AFD52
:1032F0007B689B7F184600F095FD00F0E9FC74E0C8
:10330000414B1B78212B72D13E4A92F83E316FF32C
:10331000410382F83E3104E03C4B1B78DBB2002BCA
:1033200067D0384B93F83C311A462C2303FB02F349
:10333000344A13440433BB60BB685B68C3F3401377
:10334000DBB2002B14BF01230023DBB283F00103A7
:10335000DBB2002BE0D100F005FE02467B689A61EB
:1033600000F094FD03461A467B681A7700F08EFD44
:1033700003461A467B685A7700F088FD03461A46D2
:103380007B689A7700F058FC786800F01BFB2EE011
:103390001D4B1B78212B2ED11A4A92F83E316FF328
:1033A000410382F83E31184B5B889AB27B689A825F
:1033B000786800F011FB1EE0134B1B78212B1CD109
:1033C000104A92F83E316FF3410382F83E310E4BC2
:1033D0005B889BB2DBB21946786800F007FB00BF40
:1033E0000BE000BF0AE000BF08E000BF06E000BF3E
:1033F00004E000BF02E000BF00E000BF1037BD46A0
:1034000080BD00BFB00B0020000F0020FD0E00208B
:1034100080B582B000AF78607B6814330C22002145
:10342000184604F013FB7B6802229A717B68022223
:103430001A737B6803229A747B6802330121184651
:1034400000F0C8FD034683F00103DBB2002B01D07E
:1034500000231CE07B6808330121184600F0BAFD08
:10346000034683F00103DBB2002B01D000230EE002
:103470007B680E330121184600F0ACFD034683F053
:103480000103DBB2002B01D0002300E0012318462A
:103490000837BD4680BD000080B584B000AF7860BD
:1034A000214B1B78DBB2042B39D17B689B69002B45
:1034B00035D07B689B78FB72FB7A03F00F03DAB29E
:1034C0001A4B83F83C21FB7A23F07F03DAB2174BC7
:1034D00083F83D21154B93F83C311A462C2303FB0E
:1034E00002F3124A13440433FB60FB685B68C3F3C6
:1034F0000013DBB2002B08D1FB681B7903F0020339
:10350000DBB2002B01D0012300E0002303F0010314
:10351000DBB2002B04D0786800F0B2F800E000BF06
:103520001037BD4680BD00BFFD0E0020B00B00204F
:1035300080B584B000AF78603960154B1B78DBB282
:10354000042B03D17B689B69002B01D102231BE074
:103550007B689B78FB73FB7B03F00F03DAB20D4BA8
:1035600083F83C21FB7B23F07F03DAB2094B83F81D
:103570003D21386804F084FC03469BB200221946C2
:10358000386802F029FA034618461037BD4680BD58
:10359000FD0E0020B00B002080B586B000AFF860B3
:1035A000B9601346FB80134B1B78DBB2042B03D1AD
:1035B000FB689B69002B01D1022317E0FB689B7815
:1035C000FB75FB7D03F00F03DAB20B4B83F83C2154
:1035D000FB7D23F07F03DAB2074B83F83D21FB88A4
:1035E00000221946B86802F0F7F903461846183762
:1035F000BD4680BDFD0E0020B00B002080B584B01C
:1036000000AF78600B46FB701B4B1B78DBB2042BC2
:1036100003D17B689B69002B01D1022328E07B68E2
:103620009B78BB73BB7B03F00F03DAB2134B83F8B9
:103630003C21BB7B23F07F03DAB2104B83F83D21A2
:1036400000F0BEFB034683F00103DBB2002B0AD07F
:1036500000F03EFB00F05EFA0346FB73FB7B002BA1
:1036600001D0FB7B04E0FB78184600F0DBFB002375
:1036700018461037BD4680BDFD0E0020B00B00205F
:1036800080B586B000AF78602E4B1B78DBB2042B80
:1036900003D17B689B69002B01D102234EE07B683C
:1036A0009B78FB73FB7B03F00F03DAB2264B83F8A6
:1036B0003C21FB7B23F07F03DAB2234B83F83D21CF
:1036C000214B93F83C311A462C2303FB02F31E4A8C
:1036D000134404333B613B691B7823F07F03DBB267
:1036E000002B03D03B699B699BB202E03B699B685E
:1036F0009BB2002B01D1002320E000F061FB0346C8
:10370000002B14BF01230023DBB283F00103DBB2E3
:10371000FB75FB7D03F00103FB7500F0D9FAFB7D1F
:10372000002B0AD000F0F6F90346BB75BB7D002BD9
:1037300001D0BB7D02E000F0CBFA00231846183719
:10374000BD4680BDFD0E0020B00B002080B586B0C8
:1037500000AF7860384B1B78DBB2042B03D17B6859
:103760009B69002B01D1002361E07B681B7AFB740D
:10377000FB7C03F00F03DAB2304B83F83C21FB7C77
:1037800023F07F03DAB22D4B83F83D212B4B93F8C6
:103790003C311A462C2303FB02F3284A134404331A
:1037A0007B617B695B68C3F34013DBB2002B14BF02
:1037B00001230023DBB2002B38D0204B93F83C319F
:1037C0001A462C2303FB02F31C4A13440433FB6008
:1037D000FB681B7823F07F03DBB2002B03D0FB6870
:1037E0009B699BB202E0FB689B689BB2002B03D1F4
:1037F00000F022FA00231AE0104B93F83C311A46ED
:103800002C2303FB02F30D4A13440433BB60BB6853
:103810001B7823F07F03DBB2002B03D0BB689B69CE
:103820009BB204E0BB689B689BB200E00023184693
:103830001837BD4680BD00BFFD0E0020B00B002034
:1038400080B588B000AF78603C4B1B78DBB2042BAE
:1038500003D17B689B69002B02D14FF0FF3368E0F6
:103860004FF6FF73FB837B681B7AFB75FB7D03F0D0
:103870000F03DAB2324B83F83C21FB7D23F07F0348
:10388000DAB22F4B83F83D212D4B93F83C311A4689
:103890002C2303FB02F32A4A13440433BB61BB69A4
:1038A0005B68C3F34013DBB2002B14BF012300237A
:1038B000DBB2002B3BD0224B93F83C311A462C2331
:1038C00003FB02F31E4A134404333B613B691B783C
:1038D00023F07F03DBB2002B03D03B699B699BB2D3
:1038E00002E03B699B689BB2002B03D000F0CEFA4C
:1038F0000346FB83124B93F83C311A462C2303FBFF
:1039000002F30F4A13440433FB60FB681B7823F077
:103910007F03DBB2002B03D0FB689B699BB202E004
:10392000FB689B689BB2002B01D100F085F9B7F9C9
:103930001E3018462037BD4680BD00BFFD0E00205A
:10394000B00B002080B586B000AF78601A4B1B78B2
:10395000DBB2042B2CD17B689B69002B28D07B68C1
:103960009B7BFB75FB7D03F00F03DAB2134B83F8EF
:103970003C21FB7D23F07F03DAB2104B83F83D211D
:103980000F4A07F10C0392E8030083E8030007F1F4
:103990000C0300220821184602F01EF87B6816333B
:1039A00000220221184602F017F800F091F900E019
:1039B00000BF1837BD4680BDFD0E0020B00B0020B3
:1039C000EC83000880B483B000AF786000BF0C3790
:1039D000BD465DF8047B704780B483B000AF78606B
:1039E00000BF0C37BD465DF8047B704780B483B0E0
:1039F00000AF78600B46FB7000BF0C37BD465DF82A
:103A0000047B704780B500AF00F002F800BF80BDB6
:103A100080B582B000AF1D4B1B78DBB2002B30D0DD
:103A20001B4B93F83D211A4B93F83C311343DBB207
:103A3000FB710022164B83F83C210022144B83F8C3
:103A40003D21134B93F83E31C3F34003DBB2002B0F
:103A500014BF01230023DBB2002B01D0FDF786F851
:103A6000FB79BB71BB7903F00F03DAB2084B83F823
:103A70003C21BB7923F07F03DAB2054B83F83D216B
:103A800000E000BF0837BD4680BD00BFFD0E00202E
:103A9000B00B002080B483B000AF0346FB7197F9F0
:103AA0000730002B0BDB094997F907305B09FA79DE
:103AB00002F01F02012000FA02F241F8232000BFA9
:103AC0000C37BD465DF8047B704700BF00E100E0A5
:103AD00080B483B000AF0346FB7197F90730002B29
:103AE00010DB0B4997F907305B09FA7902F01F02E6
:103AF000012000FA02F2203341F82320BFF34F8F58
:103B0000BFF36F8F00BF0C37BD465DF8047B704775
:103B100000E100E080B586B000AF6423FB75444B44
:103B20001B689B6B98470346BB82414B93F83C3123
:103B30001A462C2303FB02F33D4A13440433FB6073
:103B4000FB681B7823F07F03DBB2802B22D1384B3C
:103B500093F83C311A462C2303FB02F3344A1344F6
:103B60000433BB60BB685B68C3F30013DBB2002B9C
:103B700008D1BB681B7903F00203DBB2002B01D034
:103B8000012300E0002303F00103DBB2002B1AD075
:103B9000002348E0264B93F83C311A462C2303FBC4
:103BA00002F3234A134404337B607B685B68C3F3EE
:103BB0004013DBB2002B14BF01230023DBB2002B28
:103BC00001D000232FE01B4B1B78FB74FB7C002BE8
:103BD00001D1022327E0FB7C052B01D1032322E046
:103BE000134B93F83C311946114A2C2303FB01F384
:103BF00013441B7AC3F38003DBB2002B01D00123F3
:103C000011E00B4B1B689B6B984703463B823A8A3B
:103C1000BB8A9A4289D03B8ABB82FB7D5A1EFA75C9
:103C2000002B82D1042318461837BD4680BD00BF43
:103C3000B00B0020FD0E002080B582B000AF234BFA
:103C400093F83C311A462C2303FB02F31F4A13441A
:103C500004337B607B681B7903F00203DBB2002B2B
:103C60002FD01A4B1B68DB6A7A6810787A68116962
:103C70007A685269984703461A467B689A607B685F
:103C80000022DA607B685B68C3F3C003DBB2002B01
:103C900018D17B689B68002B14D17A68938843F015
:103CA000080393807A6893886FF345139380074BDA
:103CB0001B689B6A7A6810787A685269114698473F
:103CC00000E000BF0837BD4680BD00BFB00B00203C
:103CD00080B582B000AF384B93F83C311A462C23A4
:103CE00003FB02F3344A134404337B607B685B6854
:103CF000C3F30013DBB2012B59D07B681B7903F0AF
:103D00000203DBB2002B52D07A68938843F0100391
:103D100093807B68DA697B689A627B689A697B68C2
:103D20005A627B6800229A616B20FFF7D1FE224B1A
:103D30001B681B6B7A6810787A68916A7A68526A95
:103D4000984738607B689A6A3B681A447B689A6235
:103D50007B685A6A3B68D21A7B685A626B20FFF70D
:103D600099FE164B1B78DBB2012B21D17B681B78A7
:103D700003F00F03DBB2002B1AD000BF7B685B6837
:103D8000C3F30013DBB2002BF8D17A68938843F0B9
:103D900010039380084B1B681B6B7A6810787A6855
:103DA000916A00229847054B00221A7000E000BF7C
:103DB0000837BD4680BD00BFB00B0020B008002012
:103DC00080B483B000AF164B93F83C311A462C23D5
:103DD00003FB02F3124A134404333B600023FB71DC
:103DE0003B681B7823F07F03DBB2002B09D03B68D4
:103DF0009A693B681B6A9A4234BF01230023FB7116
:103E000006E03B689B68002B14BF01230023FB7175
:103E1000FB7918460C37BD465DF8047B704700BF40
:103E2000B00B002080B485B000AF0346FB71164B89
:103E300093F83C311A462C2303FB02F3124A134435
:103E40000433BB600023FB73BB689A69BB681B6AC1
:103E50009A420DD2BB68DA69BB689B691344FA7950
:103E60001A70BB689B695A1CBB689A610123FB737B
:103E7000FB7B83F00103DBB2002BE5D100BF1437DD
:103E8000BD465DF8047B7047B00B002080B483B062
:103E900000AF194B93F83C311A462C2303FB02F375
:103EA000154A134404333B600023FB710023BB71AC
:103EB0003B689B68002B12D03B681A693B68DB6843
:103EC00013441B78BB713B68DB685A1C3B68DA60A3
:103ED0003B689B685A1E3B689A600123FB71FB7923
:103EE00083F00103DBB2002BE2D1BB7918460C371B
:103EF000BD465DF8047B7047B00B002080B485B0F0
:103F000000AF7860164B93F83C311A462C2303FB24
:103F100002F3134A13440433BB600023FB73BB68F2
:103F20009A69BB681B6A033B9A420DD2BB68DA6987
:103F3000BB689B6913447A681A60BB689B691A1D49
:103F4000BB689A610123FB73FB7B83F00103DBB247
:103F5000002BE4D100BF1437BD465DF8047B7047E9
:103F6000B00B002080B485B000AF194B93F83C3102
:103F70001A462C2303FB02F3154A134404337B60D7
:103F80000023FB730023BB607B689B68032B12D963
:103F90007B681A697B68DB6813441B68BB607B68BD
:103FA000DB681A1D7B68DA607B689B681A1F7B6878
:103FB0009A600123FB73FB7B83F00103DBB2002BD0
:103FC000E2D1BB6818461437BD465DF8047B7047E4
:103FD000B00B002090B585B000AF78600B46FB7049
:103FE0000023FB7392E0FA7B13465B0013445B00F3
:103FF0001A467B6813441B7803F00F03BB73484BCE
:104000001B68DC69FA7B13465B0013445B001A46AD
:104010007B6813441878FA7B13465B0013445B00FB
:104020001A467B6813441979FA7B13465B001344E4
:104030005B001A467B6813445B881A46A047034618
:10404000002B01D0002367E0B97BFA7B13465B00AD
:1040500013445B001A467B6813441878304A2C23BB
:1040600003FB01F31344043302461A70B87BFA7B56
:1040700013465B0013445B001A467B6813445B885D
:10408000DBB203F07F03D9B2254A2C2303FB00F3F4
:104090001A44138961F38C131381BB7B204A2C21B2
:1040A00001FB03F31A44137A43F001031372BB7B41
:1040B0001B4A2C2101FB03F31A44137A43F0020339
:1040C0001372FA7B13465B0013445B001A467B684D
:1040D00013441B785BB2002B15DB114B1B689C6AE9
:1040E000FA7B13465B0013445B001A467B6813445B
:1040F0001878BB7B0A4A2C2101FB03F313441833C5
:104100001B681946A047FB7B0133FB73FA7BFB78E6
:104110009A42FFF468AF012318461437BD4690BD9C
:10412000B00B002080B400AF044B9B6903F48033D4
:104130001846BD465DF8047B704700BF004600503E
:1041400080B400AF044B5B6A03F440331846BD46AD
:104150005DF8047B704700BF0046005080B400AF9C
:10416000054B9B6ADBB203F00303DBB21846BD4686
:104170005DF8047B704700BF0046005080B400AF7C
:10418000064B1A68064B1B6903F0010302FA03F39E
:104190001846BD465DF8047B704700BFC0FF002095
:1041A0000046005080B400AF034B1B681846BD4664
:1041B0005DF8047B704700BFC0FF002080B400AFF3
:1041C000034BD3F8C4301846BD465DF8047B7047F6
:1041D0000040005080B584B000AF786002F010FF5E
:1041E0000C4B1B680C4AA2FB03239A0C7B6802FB56
:1041F00003F37B600023FB6003E000BFFB68013337
:10420000FB60FA687B689A42F7D300BF1037BD465F
:1042100080BD00BFC0FF002083DE1B4380B483B09D
:1042200000AF78600549054B9A687B6813438B6043
:1042300000BF0C37BD465DF8047B704774400050EA
:1042400080B483B000AF78600649064B9A687B68FB
:10425000DB4313408B6000BF0C37BD465DF8047B29
:10426000704700BF7440005080B483B000AF7860E6
:104270000549054B1A697B6813430B6100BF0C3776
:10428000BD465DF8047B70477440005080B400AFB9
:10429000034B5B681846BD465DF8047B704700BF62
:1042A0007440005080B483B000AF7860044A7B68EB
:1042B000D36000BF0C37BD465DF8047B704700BF7C
:1042C0007440005080B400AF044B1B6903F470636A
:1042D0001846BD465DF8047B704700BF00400050A3
:1042E00080B483B000AF0346FB80044AFB881361AF
:1042F00000BF0C37BD465DF8047B7047004000509E
:1043000080B483B000AF7860054A7B680A339B00B5
:1043100013445B6818460C37BD465DF8047B704754
:104320000040005080B483B000AF78603960064A26
:104330007B680A339B0013443A685A6000BF0C370D
:10434000BD465DF8047B70470040005080B483B0E8
:1043500000AF786039600A49094A7B68283352F80F
:10436000232001203B6800FA03F31A437B682833BB
:1043700041F8232000BF0C37BD465DF8047B704731
:104380000040005080B483B000AF786039600B49C2
:104390000A4A7B68283352F8232001203B6800FA40
:1043A00003F3DB431A407B68283341F8232000BF26
:1043B0000C37BD465DF8047B704700BF00400050DD
:1043C00080B483B000AF7860396008497B681A0117
:1043D0003B68DB02134343F40803C1F88C3000BF91
:1043E0000C37BD465DF8047B704700BF00400050AD
:1043F00080B400AF064A064BD3F88C3023F001039B
:10440000C2F88C3000BFBD465DF8047B704700BF2A
:104410000040005080B400AF064A064BD3F88C3001
:1044200043F00103C2F88C3000BFBD465DF8047B49
:10443000704700BF0040005080B400AF074BD3F876
:104440008C3003F00103002B0CBF01230023DBB2EF
:104450001846BD465DF8047B704700BF0040005021
:1044600080B400AF074BD3F8903003F48043002BA7
:1044700014BF01230023DBB21846BD465DF8047B60
:10448000704700BF0040005080B582B000AF0023ED
:10449000FB71FFF7D1FF034683F00103DBB2002B72
:1044A00001D00123FB7100F031F80346002B01D04D
:1044B0000223FB71064A064BD3F88C3043F002030B
:1044C000C2F88C30FB7918460837BD4680BD00BF66
:1044D0000040005080B582B000AFFFF7ADFF03464B
:1044E00083F00103DBB2002B03D06FF000437B604D
:1044F00005E0054BD3F89030C3F309037B607B687C
:1045000018460837BD4680BD0040005080B400AF5B
:10451000074BD3F8903003F40043002B14BF012362
:104520000023DBB21846BD465DF8047B704700BF30
:104530000040005080B485B000AF786039607B687F
:104540001B0403F47023FB60FB6843F00103FB6072
:104550000A4A3B68C2F8CC30084AFB68C2F8C83047
:1045600000BF064BD3F8C43003F40053002BF8D13E
:1045700000BF1437BD465DF8047B70470040005013
:1045800080B485B000AF78607B681B0403F47023AF
:10459000FB60FB6823F00103FB600A4AFB68C2F87A
:1045A000C83000BF074BD3F8C43003F40053002BCE
:1045B000F8D1044BD3F8CC3018461437BD465DF81B
:1045C000047B70470040005090B585B002AF786022
:1045D000002000F0F1FA00F07FFD7B68DB79002B12
:1045E0000AD000F075FF00BF00F060FF034683F0C3
:1045F0000103DBB2002BF7D17B685B7A184600F031
:104600006FFB00BFFFF7DAFD0346002BFAD17B6892
:104610001B7A184600F00CFD7B681B7C184600F0E6
:104620007FFB7B685B7C184600F0A6FB7B689B7C6D
:10463000184600F08BFB7B68DB7C184600F0B2FB71
:104640007B689B79002B0AD000F0D6FF00BF00F0FA
:10465000FBFF034683F00103DBB2002BF7D17B683D
:10466000DB78002B02D101F053F811E001F03EF8A5
:104670007B6898887B68D9787B685B781A467B680A
:104680001B781C467B689B780093234601F052F808
:104690007B68DB68B3F5803F03D14FF4803000F0D6
:1046A0008BFA02F0ADFC00BF0C37BD4690BD000098
:1046B00080B483B000AF78600649064B9A687B6887
:1046C000DB4313408B6000BF0C37BD465DF8047BB5
:1046D000704700BF6041005080B483B000AF786085
:1046E0000549054B9A687B6813438B6000BF0C3704
:1046F000BD465DF8047B70476041005080B400AF58
:10470000034B5B681846BD465DF8047B704700BFED
:104710006041005080B483B000AF7860044A7B6889
:10472000136100BF0C37BD465DF8047B704700BFC6
:104730006041005080B483B000AF7860044A7B6869
:10474000D36000BF0C37BD465DF8047B704700BFE7
:104750006041005080B483B000AF78600549054BDC
:104760005A697B6813434B6100BF0C37BD465DF847
:10477000047B70473C41005080B400AF034B5B6941
:104780001846BD465DF8047B704700BF3C410050B1
:1047900080B483B000AF78600549054B1A687B6828
:1047A00013430B6000BF0C37BD465DF8047B7047B8
:1047B0003C41005080B483B000AF78600649064B9E
:1047C0001A687B68DB4313400B6000BF0C37BD46A3
:1047D0005DF8047B704700BF3C41005080B483B05B
:1047E00000AF78600549054B9A687B6813438B607E
:1047F00000BF0C37BD465DF8047B70473C4100505C
:1048000080B483B000AF78600649064B9A687B6835
:10481000DB4313408B6000BF0C37BD465DF8047B63
:10482000704700BF3C41005080B483B000AF786057
:104830000549054B5A697B6813434B6100BF0C3730
:10484000BD465DF8047B70477440005080B483B06F
:1048500000AF78600649064B5A697B68DB4313401A
:104860004B6100BF0C37BD465DF8047B704700BF4D
:104870007440005080B485B000AF78607B681B0F37
:10488000FB607B6823F07043BB60FA6813465B00F3
:1048900013449B001A46054B1344BA681A6000BFC4
:1048A0001437BD465DF8047B704700BF10440050CC
:1048B00080B485B000AF78607B681B0FFB607B68BD
:1048C00023F07043BB60FA6813465B0013449B00FF
:1048D0001A46054B1344BA681A6000BF1437BD4628
:1048E0005DF8047B704700BF1444005080B485B06D
:1048F00000AF78607B681B0FFB607B6823F0704320
:10490000BB60FA6813465B0013449B001A46084BD1
:1049100013441A68BB681340002B14BF0123002303
:10492000DBB218461437BD465DF8047B704700BF04
:104930000C44005080B584B000AF00F039F8F86046
:104940001A4B1B6803F00103002B09D0174B9B681F
:1049500003F07F030133FA68B2FBF3F3FB601FE05F
:10496000124B9B681B0E03F00F030133BB600F4B10
:104970009B681B0A03F07F0301337B600B4B9B6832
:104980001B0C03F07F0301333B60FB687A6802FB7A
:1049900003F2BB68396801FB03F3B2FBF3F3FB607E
:1049A000FB6818461037BD4680BD00BF1047005059
:1049B00080B582B000AF084BDB6803F00103002B29
:1049C00003D102F087FB786001E0044B7B607B68D9
:1049D00018460837BD4680BD1047005000366E01AE
:1049E00080B584B000AF02F075FBF860104B1B6916
:1049F00003F00103002B16D10D4B5B691B0A03F07A
:104A00007F030133BB600A4B5B691B0E03F00F038E
:104A100001337B60FB68BA6802FB03F27B685B00D2
:104A2000B2FBF3F3FB60FB6818461037BD4680BD50
:104A30001047005080B582B000AF00237B60FFF7C5
:104A40009DFB7860054B1B6A03F001037A6822FA2C
:104A500003F318460837BD4680BD00BF004600502E
:104A600080B582B000AF00237B60FFF75BFB38604E
:104A70003B68B3F5803F03D1FFF75CFF786005E04A
:104A80003B68002B02D1FFF7ABFF7860054B9B69B9
:104A900003F0070301337A68B2FBF3F318460837D3
:104AA000BD4680BD0046005080B582B000AFFFF724
:104AB00041FF7860054BDB6903F03F0301337A68FF
:104AC000B2FBF3F318460837BD4680BD00460050E0
:104AD00080B582B000AF00237B60FFF731FB386008
:104AE0003B68B3F5003F03D1FFF724FF78600CE08B
:104AF0003B68002B02D10A4B7B6006E03B68B3F5B4
:104B0000803F02D14FF400437B60064B5B6ADBB20F
:104B100001337A68B2FBF3F318460837BD4680BD0F
:104B200000366E010046005080B582B000AF002311
:104B30007B60FFF713FB0346FB70FB78032B0DD163
:104B4000FFF7F8FE7860134B9B6A1B0CC3F3080356
:104B500001337A68B2FBF3F37B6016E0FB78002B3D
:104B600003D1FFF70BFB78600FE0FB78022B0CD131
:104B7000FFF736FF7860074B9B6A1B0CC3F30803F3
:104B800001337A68B2FBF3F37B607B681846083721
:104B9000BD4680BD0046005080B500AFFFF702FB68
:104BA0000246044B5B6903F0010322FA03F3184643
:104BB00080BD00BF0046005080B483B000AF786075
:104BC0000649064BDB6823F480327B681343CB60D5
:104BD00000BF0C37BD465DF8047B704700460050AF
:104BE00080B483B000AF78600649064B9B6923F41C
:104BF00080327B6813438B6100BF0C37BD465DF884
:104C0000047B70470046005080B483B000AF7860EA
:104C10000649064B5B6A23F440327B6813434B62C0
:104C200000BF0C37BD465DF8047B7047004600505E
:104C300080B483B000AF0346FB710749064B9B6A03
:104C400023F00302FB7913438B6200BF0C37BD4690
:104C50005DF8047B704700BF0046005080B483B00D
:104C600000AF0346FB80FB88002B08D10B4A0B4B9F
:104C7000DB6823F4807323F00103D36007E0074A65
:104C8000064BDB6843F4807343F00103D36000BF3D
:104C90000C37BD465DF8047B704700BF10470050DD
:104CA00080B483B000AF0346FB7100BF0A4BD3F85A
:104CB000C43003F00803002BF8D10849074BDB6828
:104CC00023F04002FB791343CB6000BF0C37BD4695
:104CD0005DF8047B704700BF004000500043005067
:104CE00080B483B000AF0346FB7100BF0A4BD3F81A
:104CF000C43003F00803002BF8D10849074BDB68E8
:104D000023F08002FB791343CB6000BF0C37BD4614
:104D10005DF8047B704700BF004000500043005026
:104D200080B483B000AF78600749074BDB6823F09D
:104D3000FF027B68013B1343CB6000BF0C37BD46CD
:104D40005DF8047B704700BF0046005080B483B01C
:104D500000AF78600749074B1B6A23F001027B68AC
:104D6000013B13430B6200BF0C37BD465DF8047B6B
:104D7000704700BF0046005080B483B000AF786039
:104D80000749074B1B6923F001027B68013B134372
:104D90000B6100BF0C37BD465DF8047B704700BF58
:104DA0000046005080B483B000AF78600749074BDD
:104DB0005B6923F001027B68013B13434B6100BF39
:104DC0000C37BD465DF8047B704700BF00460050BD
:104DD00080B483B000AF78600749074B9B6923F02C
:104DE00007027B68013B13438B6100BF0C37BD4654
:104DF0005DF8047B704700BF0046005080B483B06C
:104E000000AF78600749074BDB6923F03F027B68FE
:104E1000013B1343CB6100BF0C37BD465DF8047BFB
:104E2000704700BF0046005080B483B000AF786088
:104E30000749074B5B6A23F0FF027B68013B134382
:104E40004B6200BF0C37BD465DF8047B704700BF66
:104E50000046005080B483B000AF78600849084B2A
:104E60009B6A23F0FF7323F480337A68013A1204BB
:104E700013438B6200BF0C37BD465DF8047B70475F
:104E80000046005080B483B000AF0346FB71044A73
:104E9000FB79536000BF0C37BD465DF8047B70475B
:104EA0000046005080B483B000AF0346FB71044A53
:104EB000FB79936000BF0C37BD465DF8047B7047FB
:104EC0000046005080B483B000AF0346FB71074B2F
:104ED0001A68FB791340002B14BF01230023DBB2B7
:104EE00018460C37BD465DF8047B704700460050FD
:104EF00080B400AF084B5B69DBB207EE903AF8EE86
:104F0000677A9FED067A67EE877A17EE903A184631
:104F1000BD465DF8047B704700420050ED0DBE3B7E
:104F200080B400AF094B5B691B0ADBB207EE903A15
:104F3000F8EE677A9FED067A67EE877A17EE903A79
:104F40001846BD465DF8047B704700BF0042005024
:104F5000EC51B83C80B400AF064A064B5B6923F4C1
:104F6000803323F00203536100BFBD465DF8047B2C
:104F7000704700BF1047005080B400AF064A064B90
:104F80005B6943F4803343F00203536100BFBD46C5
:104F90005DF8047B704700BF1047005080B483B0B9
:104FA00000AF786039601A4A194B5B6943F001031E
:104FB0005361174A164B5B6943F010035361144960
:104FC0003B68013B1A027B68013B1B0613434B61A4
:104FD0000F4A0F4B5B6943F0400353610C4A0C4B83
:104FE0005B6923F010035361094A094B5B6943F481
:104FF0008023536100BF064B1B6903F00403002BA1
:10500000F9D000BF0C37BD465DF8047B704700BF88
:105010001047005080B400AF034B044A5A6100BFF0
:10502000BD465DF8047B7047104700500300010047
:1050300080B582B000AF0346FB710F4A0E4B5B6830
:1050400043F480135360FB79012B0ED10A4A0A4BBB
:105050005B6823F4801353606420FFF7BBF8064AB3
:10506000054B5B6843F4002353606420FFF7B2F8FC
:1050700000BF0837BD4680BD1047005080B400AF68
:10508000044B4FF440325A6000BFBD465DF8047BCC
:10509000704700BF0042005080B400AF044B4FF493
:1050A00040329A6000BFBD465DF8047B704700BF88
:1050B0000042005080B400AF064B1B6903F00403AC
:1050C000002B14BF01230023DBB21846BD465DF858
:1050D000047B70471047005080B400AF124B1B6830
:1050E00003F00103002B09D10F4B01225A6000BFCE
:1050F0000D4B1B6803F00103002BF9D00B4B1B6811
:1051000003F40073002B0AD0084B4FF400729A602E
:1051100000BF064B1B6803F40073002BF9D100BFDE
:10512000BD465DF8047B70470042005000440050CB
:1051300080B400AF054B01229A60054B4FF400721A
:105140005A6000BFBD465DF8047B704700420050C6
:105150000044005080B400AF0B4B1B6803F0010308
:10516000002B07D0094B1B6803F40073002B01D1FF
:10517000012300E0002303F00103DBB21846BD4623
:105180005DF8047B704700BF0042005000440050AF
:1051900080B400AF00BF094BD3F8C43003F0200344
:1051A000002BF8D1064A064B5B6923F001035361DB
:1051B00000BFBD465DF8047B704700BF0040005053
:1051C0000043005080B400AF00BF094BD3F8C43097
:1051D00003F02003002BF8D1064A064B5B6943F02D
:1051E0000103536100BFBD465DF8047B704700BFFB
:1051F000004000500043005080B483B000AF78609E
:1052000000BF084BD3F8C43003F00203002BF8D1E1
:10521000054A7B68536000BF0C37BD465DF8047BD0
:10522000704700BF004000500043005080B483B07E
:1052300000AF786000BF084BD3F8C43003F004031C
:10524000002BF8D1054A7B68936000BF0C37BD4640
:105250005DF8047B704700BF0040005000430050E1
:1052600080B483B000AF786000BF094BD3F8C4307E
:1052700003F00803002BF8D10649064BDA687B6877
:105280001343CB6000BF0C37BD465DF8047B70470D
:10529000004000500043005080B483B000AF7860FD
:1052A00000BF0A4BD3F8C43003F00803002BF8D139
:1052B0000749074BDB687A68D2431340CB6000BFD5
:1052C0000C37BD465DF8047B704700BF00400050BE
:1052D0000043005080B400AF00BF094BD3F8C43086
:1052E00003F00803002BF8D1064A064BDB6843F0B5
:1052F0001003D36000BFBD465DF8047B704700BF5C
:10530000004000500043005080B582B000AF03461B
:10531000FB71FB79002B01D1FFF7DCFF00BF0837E1
:10532000BD4680BD80B483B000AF0346FB7100BFB3
:105330000E4BD3F8C43003F00803002BF8D1FB79EF
:10534000002B06D10A4A0A4BDB6843F48073D36012
:1053500005E0074A064BDB6823F48073D36000BF87
:105360000C37BD465DF8047B704700BF004000501D
:105370000043005080B483B000AF03463960FB7136
:1053800000BF0F4BD3F8C43003F00803002BF8D153
:105390000C480C4BDA68FB799B004FF4702101FA42
:1053A00003F3DB431A40FB799B00396801FA03F3EE
:1053B0001343C36000BF0C37BD465DF8047B7047E4
:1053C000004000500043005080B483B000AF03465B
:1053D0000A46FB711346BB8000BF0E4BD3F8C430A6
:1053E00003F00803002BF8D10B480B4BDA68FB796C
:1053F0004FF4805101FA03F3DB431340B988FA7983
:1054000001FA02F21343C36000BF0C37BD465DF8DA
:10541000047B7047004000500043005080B483B0CC
:1054200000AF0346FB7100BF0E4BD3F8C43003F04E
:105430000803002BF8D1FB79002B06D10A4A0A4B4E
:10544000DB6843F48063D36005E0074A064BDB6802
:1054500023F48063D36000BF0C37BD465DF8047B46
:10546000704700BF004000500043005080B483B03C
:1054700000AF0346FB8000BF0A4BD3F8C43003F0F3
:105480000803002BF8D10849074BDB6823F480623E
:10549000FB881343CB6000BF0C37BD465DF8047B2F
:1054A000704700BF004000500043005080B400AF80
:1054B000064B1B6803F00803002B0CBF01230023DD
:1054C000DBB21846BD465DF8047B704700430050D0
:1054D00080B500AF00BF174BD3F8C43003F0800392
:1054E000002BF8D1144A144BDB6923F03003D3614D
:1054F00000BF104BD3F8C43003F00803002BF8D1E1
:105500000D4A0D4BDB6843F00803D36000BF094B25
:10551000D3F8C43003F00403002BF8D1064B082263
:105520009A6000BFFEF74AFE0346002BFAD100BF87
:1055300080BD00BF004000500043005080B400AF69
:1055400000BF094BD3F8C43003F08003002BF8D11F
:10555000064A064BDB6943F03003D36100BFBD460A
:105560005DF8047B704700BF0040005000430050CE
:1055700080B400AF00BF094BD3F8C43003F0800300
:10558000002BF8D1064A064BDB6943F03103D361A7
:1055900000BFBD465DF8047B704700BF004000506F
:1055A0000043005080B400AF00BF0A4BD3F8C430B2
:1055B00003F08003002BF8D1074A074BDB6923F087
:1055C000310343F02003D36100BFBD465DF8047B87
:1055D000704700BF004000500043005080B400AF4F
:1055E000044B9B6903F001031846BD465DF8047B3C
:1055F000704700BF00430050B0B500AF0F4A0F4BDB
:105600005B6823F4803353600D4D0D4B5B6823F4CE
:10561000702424F0300401F05DFD0246094BA3FB29
:1056200002231B0D013B1B0423436B60034A034B06
:105630005B6823F40033536000BFB0BD10470050D7
:10564000004700506BCA5F6B80B400AF074B1B680C
:1056500003F46073B3F5607F0CBF01230023DBB25A
:105660001846BD465DF8047B704700BF10470050E8
:1056700080B400AF054A054B5B6843F030035360CC
:1056800000BFBD465DF8047B704700BF0047005077
:1056900080B400AF054A054B5B6843F001035360DB
:1056A00000BFBD465DF8047B704700BF0047005057
:1056B00080B400AF054A054B5B6823F001035360DB
:1056C00000BFBD465DF8047B704700BF0047005037
:1056D00080B400AF044B1B6803F001031846BD46BD
:1056E0005DF8047B704700BF0047005080B400AFF6
:1056F000064A064B5B6823F4803323F002035360B1
:1057000000BFBD465DF8047B704700BF10470050E6
:1057100080B400AF064A064B5B6843F4803343F025
:105720000203536000BFBD465DF8047B704700BFB5
:105730001047005080B586B000AFBA607B6003466A
:10574000FB810B467B73FB891846FFF787FA7B7B4F
:10575000012B40F08480FB89002B09D101F0BAFCB9
:1057600002464C4BA3FB02239B0C9B057B6102E092
:105770004FF0C0637B617B697A6802FB03F2BB6810
:10578000B2FBF3F37B617B69434AA2FB03231B0952
:105790009B0D3B61414A414B5B6843F00103536001
:1057A0003E4A3E4B5B6843F0100353603B493B4B22
:1057B0009A683B4B13407A68013A12021A433B69DC
:1057C000013B1B041A43BB68013B1B0613438B6060
:1057D000324A324B5B6843F0400353602F4A2F4BF1
:1057E0005B6823F0100353602C4A2C4B5B6843F436
:1057F0008023536000BF294B1B6803F00403002B78
:10580000F9D0264A254B5B6823F00103536000BFA3
:10581000224B1B6803F00103002BF9D17B69214A5D
:10582000A2FB03235B099B0D3B613A6A3B699A42E9
:1058300002D2386900F04AF87B695B081A4AA2FB79
:1058400003235B099B0D3B613A6A3B699A4202D292
:10585000386900F03BF8386A00F038F815E00F4975
:105860000E4B9B6823F07F023B6A013B13438B6026
:105870000A4A0A4B5B6843F00103536000BF074BC1
:105880001B6803F00103002BF9D000BF1837BD4699
:1058900080BD00BF83DE1B43ABAAAAAA10470050FD
:1058A000FF8080F089888888B7600BB680B400AF2D
:1058B000054A054B5B6843F48033536000BFBD4627
:1058C0005DF8047B704700BF1047005080B582B080
:1058D00000AF78600849084B9B6823F4FE027B68A0
:1058E000013B1B0413438B603220FEF773FC00BFA7
:1058F0000837BD4680BD00BF1047005080B400AFE0
:10590000064B1B6803F00403002B14BF0123002384
:10591000DBB21846BD465DF8047B70471047005067
:1059200080B485B000AF786039600023FB6002E08E
:10593000FB680133FB607A68FB6822FA03F303F02B
:105940000103002B02D1FB681F2BF1D9FB68202B30
:1059500002D10123FB7206E00649FB683A6841F870
:1059600023200023FB72FB7A18461437BD465DF8EE
:10597000047B7047080F002080B586B000AF7860C8
:1059800000237B61FEF782FC38611CE03A697B6989
:1059900022FA03F303F00103002B11D00D4A7B69B7
:1059A00052F82330FB60FB68002B01D0FB6898475E
:1059B00001227B6902FA03F31846FEF773FC05E047
:1059C0007B6901337B617B691F2BDFD900BF1837EF
:1059D000BD4680BD080F002080B588B000AFF860DC
:1059E0000B467A607B813F4B93F83C311A462C235F
:1059F00003FB02F33B4A13440433BB610023FB82E5
:105A00000023FB830023BB837B68002B52D07B6881
:105A10001B887A89D31A7B817B681B88FB8349E0CA
:105A2000BB695B68C3F30013DBB2002B00D041E01D
:105A3000FEF7C6F90346002B29D0BB691A6ABB6979
:105A40009B69D21A7B89934228BF1346FB82BB69AC
:105A5000DB691A46BB699B6913441846FA8BFB68DD
:105A600013441946FB8A1A4600F0C0FABB699A69CA
:105A7000FB8A1A44BB699A61FA8BFB8A1344FB8345
:105A80007B89BB837A89FB8AD31A7B8112E0FEF77C
:105A90001FF97B68002B04D07B68FA8B1A800523E2
:105AA0001BE0FEF737F803467B757B7D002B01D0AA
:105AB0007B7D12E07B89002BB2D17B89002B0BD13F
:105AC000BB699B88C3F38613DBB29BB2BA8B9A4245
:105AD00002D1054B01221A70002318462037BD461B
